{
    "_format": "hh-sol-artifact-1",
    "contractName": "TraitsMetadata",
    "sourceName": "contracts/TraitsMetadata.sol",
    "abi": [
        {
            "inputs": [
                {
                    "internalType": "uint256",
                    "name": "_size",
                    "type": "uint256"
                },
                {
                    "internalType": "uint256",
                    "name": "_start",
                    "type": "uint256"
                },
                {
                    "internalType": "uint256",
                    "name": "_end",
                    "type": "uint256"
                }
            ],
            "name": "InvalidCodeAtRange",
            "type": "error"
        },
        {
            "inputs": [],
            "name": "WriteError",
            "type": "error"
        },
        {
            "inputs": [
                {
                    "internalType": "uint256",
                    "name": "tokenId",
                    "type": "uint256"
                }
            ],
            "name": "createTokenUri",
            "outputs": [
                {
                    "internalType": "string",
                    "name": "",
                    "type": "string"
                }
            ],
            "stateMutability": "view",
            "type": "function"
        },
        {
            "inputs": [
                {
                    "internalType": "uint256",
                    "name": "tokenid",
                    "type": "uint256"
                }
            ],
            "name": "getAttributes",
            "outputs": [
                {
                    "internalType": "string",
                    "name": "",
                    "type": "string"
                }
            ],
            "stateMutability": "view",
            "type": "function"
        },
        {
            "inputs": [
                {
                    "internalType": "uint256",
                    "name": "groupId",
                    "type": "uint256"
                }
            ],
            "name": "getColoursFromLayers",
            "outputs": [
                {
                    "internalType": "string[2304]",
                    "name": "",
                    "type": "string[2304]"
                }
            ],
            "stateMutability": "view",
            "type": "function"
        },
        {
            "inputs": [
                {
                    "internalType": "uint256",
                    "name": "tokenid",
                    "type": "uint256"
                }
            ],
            "name": "overlay",
            "outputs": [
                {
                    "internalType": "string",
                    "name": "",
                    "type": "string"
                }
            ],
            "stateMutability": "pure",
            "type": "function"
        },
        {
            "inputs": [
                {
                    "internalType": "uint256",
                    "name": "groupId",
                    "type": "uint256"
                },
                {
                    "internalType": "uint256[18]",
                    "name": "layers",
                    "type": "uint256[18]"
                },
                {
                    "internalType": "uint256",
                    "name": "intrinsicValue",
                    "type": "uint256"
                },
                {
                    "internalType": "string",
                    "name": "name",
                    "type": "string"
                }
            ],
            "name": "store",
            "outputs": [],
            "stateMutability": "nonpayable",
            "type": "function"
        },
        {
            "inputs": [
                {
                    "internalType": "uint256",
                    "name": "groupId",
                    "type": "uint256"
                }
            ],
            "name": "tokenSVG",
            "outputs": [
                {
                    "internalType": "string",
                    "name": "",
                    "type": "string"
                }
            ],
            "stateMutability": "view",
            "type": "function"
        }
    ],
    "bytecode": "0x60c060405260046080908152635a6d5a6d60e01b60a052600090620000259082620001d4565b5060408051808201909152600481526326bd26bd60e11b6020820152600190620000509082620001d4565b506040805180820190915260048152634f546b3560e01b60208201526002906200007b9082620001d4565b506040805180820190915260048152635a47526b60e01b6020820152600390620000a69082620001d4565b50348015620000b457600080fd5b50620002a0565b634e487b7160e01b600052604160045260246000fd5b634e487b7160e01b600052602260045260246000fd5b600281046001821680620000fc57607f821691505b602082108103620001115762000111620000d1565b50919050565b600062000128620001258381565b90565b92915050565b620001398362000117565b81546008840282811b60001990911b908116901990911617825550505050565b6000620001688184846200012e565b505050565b818110156200018c576200018360008262000159565b6001016200016d565b5050565b601f82111562000168576000818152602090206020601f85010481016020851015620001b95750805b620001cd6020601f8601048301826200016d565b5050505050565b81516001600160401b03811115620001f057620001f0620000bb565b620001fc8254620000e7565b6200020982828562000190565b506020601f821160018114620002415760008315620002285750848201515b600019600885021c1981166002850217855550620001cd565b600084815260208120601f198516915b8281101562000273578785015182556020948501946001909201910162000251565b5084821015620002915783870151600019601f87166008021c191681555b50505050600202600101905550565b61357a80620002b06000396000f3fe608060405234801561001057600080fd5b50600436106100725760003560e01c80639bac5f7a116100505780639bac5f7a146100c8578063c8234ac8146100db578063da24e040146100ee57600080fd5b80634378a6e3146100775780635b0d85cf146100a05780637f5a6d40146100b5575b600080fd5b61008a6100853660046123bd565b61010e565b604051610097919061243c565b60405180910390f35b6100b36100ae3660046124b4565b6105a7565b005b61008a6100c33660046123bd565b610646565b61008a6100d63660046123bd565b610718565b61008a6100e93660046123bd565b610795565b6101016100fc3660046123bd565b610841565b6040516100979190612593565b60606000600561011e81856125ba565b61012890856125e4565b61013291906125f7565b905060006101416005856125ba565b905060006040518060a001604052806040518060400160405280600681526020017f636f6d6d6f6e000000000000000000000000000000000000000000000000000081525081526020016040518060400160405280600881526020017f756e636f6d6d6f6e00000000000000000000000000000000000000000000000081525081526020016040518060400160405280600481526020017f726172650000000000000000000000000000000000000000000000000000000081525081526020016040518060400160405280600a81526020017f6c656467656e646172790000000000000000000000000000000000000000000081525081526020016040518060400160405280600681526020017f756e697175650000000000000000000000000000000000000000000000000000815250815250905060006040518061016001604052806040518060400160405280600381526020017f223022000000000000000000000000000000000000000000000000000000000081525081526020016040518060400160405280600381526020017f223122000000000000000000000000000000000000000000000000000000000081525081526020016040518060400160405280600381526020017f223222000000000000000000000000000000000000000000000000000000000081525081526020016040518060400160405280600381526020017f223322000000000000000000000000000000000000000000000000000000000081525081526020016040518060400160405280600381526020017f223422000000000000000000000000000000000000000000000000000000000081525081526020016040518060400160405280600381526020017f223522000000000000000000000000000000000000000000000000000000000081525081526020016040518060400160405280600381526020017f223622000000000000000000000000000000000000000000000000000000000081525081526020016040518060400160405280600381526020017f223722000000000000000000000000000000000000000000000000000000000081525081526020016040518060400160405280600381526020017f223822000000000000000000000000000000000000000000000000000000000081525081526020016040518060400160405280600381526020017f223922000000000000000000000000000000000000000000000000000000000081525081526020016040518060400160405280600481526020017f2231302200000000000000000000000000000000000000000000000000000000815250815250905060008284600581106105225761052261260b565b6020020151826004600088815260200190815260200160002054600b811061054c5761054c61260b565b6020020151604051602001610562929190612643565b604051602081830303815290604052905061057c81610ea1565b60405160200161058c919061271f565b60405160208183030381529060405295505050505050919050565b6105cf846040516020016105bb919061273f565b604051602081830303815290604052610ff4565b600086815260066020908152604080832080547fffffffffffffffffffffffff00000000000000000000000000000000000000001673ffffffffffffffffffffffffffffffffffffffff959095169490941790935560048152828220869055600590522061063e828483612845565b505050505050565b606060006106556005846125ba565b905060006040518060a001604052806040518060600160405280604081526020016134456040913981526020016040518060600160405280604081526020016133c56040913981526020016040518060600160405280604081526020016134c5604091398152602001604051806060016040528060408152602001613505604091398152602001604051806060016040528060408152602001613405604091399052905080826005811061070b5761070b61260b565b6020020151949350505050565b606060006107258361107f565b80516020808301516040808501516060860151608087015160a0880151935197985060009761075c97969394929391929101612906565b60408051601f198184030181528282019091526006825265023a0a99d1d160d51b6020830152915061078e905a611de5565b9392505050565b6060600060056107a581856125ba565b6107af90856125e4565b6107b991906125f7565b905060006107c68261107f565b905060006107d38561010e565b905060006107e086610646565b8351602080860151604080880151606089015160808a015160a08b015160008d815260058852859020945198995061082798959693959294919390928a92918c9101612b17565b604051602081830303815290604052945050505050919050565b610849612338565b610851612362565b7f7f0000000000000000000000000000000000000000000000000000000000000081527fbf0000000000000000000000000000000000000000000000000000000000000060208201527fdf0000000000000000000000000000000000000000000000000000000000000060408201527fef0000000000000000000000000000000000000000000000000000000000000060608201527ff70000000000000000000000000000000000000000000000000000000000000060808201527ffb0000000000000000000000000000000000000000000000000000000000000060a08201527ffd0000000000000000000000000000000000000000000000000000000000000060c08201527ffe0000000000000000000000000000000000000000000000000000000000000060e0820152610986612338565b600084815260066020526040812054819081906109b89073ffffffffffffffffffffffffffffffffffffffff16611e5c565b8060200190518101906109cb9190612eb3565b905060005b6009811015610e955760008282601281106109ed576109ed61260b565b60200201519050600083610a02846009612ed5565b60128110610a1257610a1261260b565b6020020151905060005b6020811015610e7f5760005b6008811015610e6c577fff00000000000000000000000000000000000000000000000000000000000000848360208110610a6457610a6461260b565b1a60f81b8b8360088110610a7a57610a7a61260b565b6020020151177effffffffffffffffffffffffffffffffffffffffffffffffffffffffffffff191614610aae576000610ab1565b60015b97507fff00000000000000000000000000000000000000000000000000000000000000838360208110610ae657610ae661260b565b1a60f81b8b8360088110610afc57610afc61260b565b6020020151177effffffffffffffffffffffffffffffffffffffffffffffffffffffffffffff191614610b30576000610b33565b60015b9650600081610b43846008612ee8565b610b4f88610100612ee8565b610b599190612ed5565b610b639190612ed5565b905060ff8916158015610b77575060ff8816155b15610c205760008054610b899061277a565b80601f0160208091040260200160405190810160405280929190818152602001828054610bb59061277a565b8015610c025780601f10610bd757610100808354040283529160200191610c02565b820191906000526020600020905b815481529060010190602001808311610be557829003601f168201915b50505050508a826109008110610c1a57610c1a61260b565b60200201525b8860ff166001148015610c3657508760ff166001145b15610cdf5760018054610c489061277a565b80601f0160208091040260200160405190810160405280929190818152602001828054610c749061277a565b8015610cc15780601f10610c9657610100808354040283529160200191610cc1565b820191906000526020600020905b815481529060010190602001808311610ca457829003601f168201915b50505050508a826109008110610cd957610cd961260b565b60200201525b8860ff166001148015610cf3575060ff8816155b15610d9c5760028054610d059061277a565b80601f0160208091040260200160405190810160405280929190818152602001828054610d319061277a565b8015610d7e5780601f10610d5357610100808354040283529160200191610d7e565b820191906000526020600020905b815481529060010190602001808311610d6157829003601f168201915b50505050508a826109008110610d9657610d9661260b565b60200201525b60ff8916158015610db057508760ff166001145b15610e595760038054610dc29061277a565b80601f0160208091040260200160405190810160405280929190818152602001828054610dee9061277a565b8015610e3b5780601f10610e1057610100808354040283529160200191610e3b565b820191906000526020600020905b815481529060010190602001808311610e1e57829003601f168201915b50505050508a826109008110610e5357610e5361260b565b60200201525b5080610e6481612eff565b915050610a28565b5080610e7781612eff565b915050610a1c565b5050508080610e8d90612eff565b9150506109d0565b50929695505050505050565b60608151600003610ec057505060408051602081019091526000815290565b60006040518060600160405280604081526020016134856040913990506000600384516002610eef9190612ed5565b610ef991906125f7565b610f04906004612ee8565b67ffffffffffffffff811115610f1c57610f1c61274e565b6040519080825280601f01601f191660200182016040528015610f46576020820181803683370190505b509050600182016020820185865187015b80821015610fb2576003820191508151603f8160121c168501518453600184019350603f81600c1c168501518453600184019350603f8160061c168501518453600184019350603f8116850151845350600183019250610f57565b5050600386510660018114610fce5760028114610fe157610fe9565b603d6001830353603d6002830353610fe9565b603d60018303535b509195945050505050565b60008061101f8360405160200161100b9190612f24565b604051602081830303815290604052611e72565b90508051602082016000f0915073ffffffffffffffffffffffffffffffffffffffff8216611079576040517f08d4abb600000000000000000000000000000000000000000000000000000000815260040160405180910390fd5b50919050565b611087612381565b60408051808201909152600080825260208201526110e360405180610100016040528060608152602001606081526020016060815260200160608152602001606081526020016060815260200160608152602001606081525090565b6110eb61239b565b60006110f5612381565b6040805161064081018252600461060082018181527f4d444177000000000000000000000000000000000000000000000000000000006106208401528252825180840184528181527f4d4445770000000000000000000000000000000000000000000000000000000060208281019190915280840191909152835180850185528281527f4d444977000000000000000000000000000000000000000000000000000000008183015283850152835180850185528281527f4d444d7700000000000000000000000000000000000000000000000000000000818301526060840152835180850185528281527f4d44517700000000000000000000000000000000000000000000000000000000818301526080840152835180850185528281527f4d445577000000000000000000000000000000000000000000000000000000008183015260a0840152835180850185528281527f4d445977000000000000000000000000000000000000000000000000000000008183015260c0840152835180850185528281527f4d446377000000000000000000000000000000000000000000000000000000008183015260e0840152835180850185528281527f4d4467770000000000000000000000000000000000000000000000000000000081830152610100840152835180850185528281527f4d446b770000000000000000000000000000000000000000000000000000000081830152610120840152835180850185528281527f4d5441770000000000000000000000000000000000000000000000000000000081830152610140840152835180850185528281527f4d5445770000000000000000000000000000000000000000000000000000000081830152610160840152835180850185528281527f4d5449770000000000000000000000000000000000000000000000000000000081830152610180840152835180850185528281527f4d544d7700000000000000000000000000000000000000000000000000000000818301526101a0840152835180850185528281527f4d54517700000000000000000000000000000000000000000000000000000000818301526101c0840152835180850185528281527f4d54557700000000000000000000000000000000000000000000000000000000818301526101e0840152835180850185528281527f4d5459770000000000000000000000000000000000000000000000000000000081830152610200840152835180850185528281527f4d5463770000000000000000000000000000000000000000000000000000000081830152610220840152835180850185528281527f4d5467770000000000000000000000000000000000000000000000000000000081830152610240840152835180850185528281527f4d546b770000000000000000000000000000000000000000000000000000000081830152610260840152835180850185528281527f4d6a41770000000000000000000000000000000000000000000000000000000081830152610280840152835180850185528281527f4d6a457700000000000000000000000000000000000000000000000000000000818301526102a0840152835180850185528281527f4d6a497700000000000000000000000000000000000000000000000000000000818301526102c0840152835180850185528281527f4d6a4d7700000000000000000000000000000000000000000000000000000000818301526102e0840152835180850185528281527f4d6a51770000000000000000000000000000000000000000000000000000000081830152610300840152835180850185528281527f4d6a55770000000000000000000000000000000000000000000000000000000081830152610320840152835180850185528281527f4d6a59770000000000000000000000000000000000000000000000000000000081830152610340840152835180850185528281527f4d6a63770000000000000000000000000000000000000000000000000000000081830152610360840152835180850185528281527f4d6a67770000000000000000000000000000000000000000000000000000000081830152610380840152835180850185528281527f4d6a6b7700000000000000000000000000000000000000000000000000000000818301526103a0840152835180850185528281527f4d7a417700000000000000000000000000000000000000000000000000000000818301526103c0840152835180850185528281527f4d7a457700000000000000000000000000000000000000000000000000000000818301526103e0840152835180850185528281527f4d7a49770000000000000000000000000000000000000000000000000000000081830152610400840152835180850185528281527f4d7a4d770000000000000000000000000000000000000000000000000000000081830152610420840152835180850185528281527f4d7a51770000000000000000000000000000000000000000000000000000000081830152610440840152835180850185528281527f4d7a55770000000000000000000000000000000000000000000000000000000081830152610460840152835180850185528281527f4d7a59770000000000000000000000000000000000000000000000000000000081830152610480840152835180850185528281527f4d7a637700000000000000000000000000000000000000000000000000000000818301526104a0840152835180850185528281527f4d7a677700000000000000000000000000000000000000000000000000000000818301526104c0840152835180850185528281527f4d7a6b7700000000000000000000000000000000000000000000000000000000818301526104e0840152835180850185528281527f4e4441770000000000000000000000000000000000000000000000000000000081830152610500840152835180850185528281527f4e4445770000000000000000000000000000000000000000000000000000000081830152610520840152835180850185528281527f4e4449770000000000000000000000000000000000000000000000000000000081830152610540840152835180850185528281527f4e444d770000000000000000000000000000000000000000000000000000000081830152610560840152835180850185528281527f4e4451770000000000000000000000000000000000000000000000000000000081830152610580840152835180850185528281527f4e44557700000000000000000000000000000000000000000000000000000000818301526105a0840152835180850185528281527f4e44597700000000000000000000000000000000000000000000000000000000818301526105c084015283518085019094529083527f4e44637700000000000000000000000000000000000000000000000000000000908301526105e081019190915260009081611afe8a610841565b905060005b6030811015611dae57611b17838a84611e9e565b885288516006908a90611b2b908390612f39565b61ffff16905250611b3d838a84611e9e565b602089015288516006908a90611b54908390612f39565b61ffff16905250611b66838a84611e9e565b604089015288516006908a90611b7d908390612f39565b61ffff16905250611b8f838a84611e9e565b606089015288516006908a90611ba6908390612f39565b61ffff16905250611bb8838a84611e9e565b608089015288516006908a90611bcf908390612f39565b61ffff16905250611be1838a84611e9e565b60a089015288516006908a90611bf8908390612f39565b61ffff16905250611c0a838a84611e9e565b60c089015288516006908a90611c21908390612f39565b61ffff16905250611c33838a84611e9e565b8860e001819052508760000151886020015189604001518a606001518b608001518c60a001518d60c001518e60e00151604051602001611c7a989796959493929190612f57565b604051602081830303815290604052878780611c9590612fc2565b985060ff1660088110611caa57611caa61260b565b6020908102919091019190915260008a528901805160019190611cce908390612f39565b61ffff16905250600860ff871610611d9c5786600060200201518760016020020151886002602002015189600360200201518a600460200201518b600560200201518c600660200201518d60076020020151604051602001611d37989796959493929190612f57565b604051602081830303815290604052858580611d5290612fc2565b965060ff1660068110611d6757611d6761260b565b6020020181905250611d9760405180604001604052806006815260200165023a0a99d1d160d51b8152505a611de5565b600095505b80611da681612eff565b915050611b03565b50611dd760405180604001604052806006815260200165023a0a99d1d160d51b8152505a611de5565b509198975050505050505050565b611e588282604051602401611dfb929190612ffe565b60408051601f198184030181529190526020810180517bffffffffffffffffffffffffffffffffffffffffffffffffffffffff167fb60e72cc0000000000000000000000000000000000000000000000000000000017905261224b565b5050565b6060611e6c82600160001961226c565b92915050565b6060815182604051602001611e88929190613061565b6040516020818303038152906040529050919050565b815160208301516060918391611eb59060306130b2565b611ebf9190612f39565b61ffff166109008110611ed457611ed461260b565b60200201518351859061ffff1660308110611ef157611ef161260b565b602002015185856020015161ffff1660308110611f1057611f1061260b565b602002015184866000015187602001516030611f2c91906130b2565b611f369190612f39565b611f41906001612f39565b61ffff166109008110611f5657611f5661260b565b602002015186518890611f6a906001612f39565b61ffff1660308110611f7e57611f7e61260b565b602002015188886020015161ffff1660308110611f9d57611f9d61260b565b60200201518789600001518a602001516030611fb991906130b2565b611fc39190612f39565b611fce906002612f39565b61ffff166109008110611fe357611fe361260b565b602002015189518b90611ff7906002612f39565b61ffff166030811061200b5761200b61260b565b60200201518b8b6020015161ffff166030811061202a5761202a61260b565b6020020151604051602001612047999897969594939291906130da565b6040516020818303038152906040528284600001518560200151603061206d91906130b2565b6120779190612f39565b612082906003612f39565b61ffff1661090081106120975761209761260b565b6020020151845186906120ab906003612f39565b61ffff16603081106120bf576120bf61260b565b602002015186866020015161ffff16603081106120de576120de61260b565b6020020151858760000151886020015160306120fa91906130b2565b6121049190612f39565b61210f906004612f39565b61ffff1661090081106121245761212461260b565b602002015187518990612138906004612f39565b61ffff166030811061214c5761214c61260b565b602002015189896020015161ffff166030811061216b5761216b61260b565b6020020151888a600001518b60200151603061218791906130b2565b6121919190612f39565b61219c906005612f39565b61ffff1661090081106121b1576121b161260b565b60200201518a518c906121c5906005612f39565b61ffff16603081106121d9576121d961260b565b60200201518c8c6020015161ffff16603081106121f8576121f861260b565b60200201516040516020016122159998979695949392919061321c565b60408051601f19818403018152908290526122339291602001613392565b60405160208183030381529060405290509392505050565b80516a636f6e736f6c652e6c6f67602083016000808483855afa5050505050565b6060833b600081900361228f57505060408051602081019091526000815261078e565b808411156122ad57505060408051602081019091526000815261078e565b838310156122f6578084846040517f2c4a89fa0000000000000000000000000000000000000000000000000000000081526004016122ed9392919061339c565b60405180910390fd5b838303848203600082821061230b578261230d565b815b60408051603f8301601f19168101909152818152955090508087602087018a3c505050509392505050565b60405180620120000160405280610900905b606081526020019060019003908161234a5790505090565b6040518061010001604052806008906020820280368337509192915050565b6040805160c081019091526060815260056020820161234a565b6040805161010081019091526060815260076020820161234a565b8035611e6c565b6000602082840312156123d2576123d2600080fd5b60006123de84846123b6565b949350505050565b60005b838110156124015781810151838201526020016123e9565b50506000910152565b6000612414825190565b80845260208401935061242b8185602086016123e6565b601f01601f19169290920192915050565b6020808252810161078e818461240a565b806102408101831015611e6c57611e6c600080fd5b60008083601f84011261247757612477600080fd5b50813567ffffffffffffffff81111561249257612492600080fd5b6020830191508360018202830111156124ad576124ad600080fd5b9250929050565b60008060008060006102a086880312156124d0576124d0600080fd5b60006124dc88886123b6565b95505060206124ed8882890161244d565b9450506102606124ff888289016123b6565b93505061028086013567ffffffffffffffff81111561252057612520600080fd5b61252c88828901612462565b92509250509295509295909350565b600061078e838361240a565b60006109008362012000810184845b84811015612587578383038852815161256f848261253b565b93505060208201602098909801979150600101612556565b50909695505050505050565b6020808252810161078e8184612547565b634e487b7160e01b600052601260045260246000fd5b6000826125c9576125c96125a4565b500690565b634e487b7160e01b600052601160045260246000fd5b81810381811115611e6c57611e6c6125ce565b600082612606576126066125a4565b500490565b634e487b7160e01b600052603260045260246000fd5b600061262b825190565b6126398185602086016123e6565b9290920192915050565b7f2261747472696275746573223a205b207b202274726169745f74797065223a2081527f22526172697479204c6576656c222c202276616c7565223a20220000000000006020820152603a016126998184612621565b7f227d2c7b2274726169745f74797065223a2022496e7472696e7369632056616c81527f7565222c2276616c7565223a00000000000000000000000000000000000000006020820152602c0190506126f18183612621565b7f7d5d7d0000000000000000000000000000000000000000000000000000000000815290506003810161078e565b611e6c8183612621565b82818337505050565b611e586102408383612729565b6102408101611e6c8284612732565b634e487b7160e01b600052604160045260246000fd5b634e487b7160e01b600052602260045260246000fd5b60028104600182168061278e57607f821691505b60208210810361107957611079612764565b6000611e6c6127ac8381565b90565b6127b8836127a0565b81546008840282811b60001990911b908116901990911617825550505050565b60006127e58184846127af565b505050565b81811015611e58576127fd6000826127d8565b6001016127ea565b601f8211156127e5576000818152602090206020601f8501048101602085101561282c5750805b61283e6020601f8601048301826127ea565b5050505050565b8267ffffffffffffffff81111561285e5761285e61274e565b612868825461277a565b612873828285612805565b506000601f8211600181146128a857600083156128905750848201355b600019600885021c198116600285021785555061063e565b600084815260209020601f19841690835b828110156128d957878501358255602094850194600190920191016128b9565b50848210156128f657600019601f86166008021c19848801351681555b5050505060020260010190555050565b7f50484e325a7942325a584a7a61573975505363784c6a456e49485a705a58644381527f623367394a7a41674d4341304f4441674e4467774a79423462577875637a306e60208201527f6148523063446f764c336433647935334d793576636d63764d6a41774d43397a60408201527f646d636e49484e6f5958426c4c584a6c626d526c636d6c755a7a306e59334a7060608201527f633342465a47646c6379632b00000000000000000000000000000000000000006080820152608c016129ce8188612621565b90506129da8187612621565b90506129e68186612621565b90506129f28185612621565b90506129fe8184612621565b9050612a0a8183612621565b7f50484e306557786c506e4a6c5933523764326c6b644767364d5442776544746f81527f5a576c6e614851364d544277654474395043397a64486c735a5434384c334e3260208201527f5a7a3400000000000000000000000000000000000000000000000000000000006040820152604301979650505050505050565b60008154612a948161277a565b600182168015612aab5760018114612ade57612b0e565b7fffffffffffffffffffffffffffffffffffffffffffffffffffffffffffffff0083168652811515820286019350612b0e565b60008581526020902060005b83811015612b0657815488820152600190910190602001612aea565b505081860193505b50505092915050565b7f646174613a6170706c69636174696f6e2f6a736f6e3b6261736536342c65794181527f67496d6c745957646c58325268644745694f69416950484e325a7942325a584a60208201527f7a61573975505363784c6a456e49485a705a586443623367394a7a41674d434160408201527f304f4441674e4467774a79423462577875637a306e6148523063446f764c336460608201527f33647935334d793576636d63764d6a41774d43397a646d636e49484e6f59584260808201527f6c4c584a6c626d526c636d6c755a7a306e59334a70633342465a47646c63796360a08201527f2b0000000000000000000000000000000000000000000000000000000000000060c082015260c101612c2b818b612621565b9050612c37818a612621565b9050612c438189612621565b9050612c4f8188612621565b9050612c5b8187612621565b9050612c678186612621565b9050612c738185612621565b7f50484e306557786c506e4a6c59335167653364705a48526f4f6a45776348673781527f614756705a3268304f6a457763486737494830674c6d3867657942746158677460208201527f596d786c626d51746257396b5a546f6762335a6c636d78686554736764326c6b60408201527f64476736494451344d4842344f79426f5a576c6e61485136494451344d48423460608201527f4f79423949447776633352356247552b5043397a646d632b4969776749434a7560808201527f5957316c496a6f67496c527959576c306379346700000000000000000000000060a082015260b4019050612d638184612a87565b7f49697767496d526c63324e796158423061573975496a6f67496c527959576c3081527f637949730000000000000000000000000000000000000000000000000000000060208201526024019050612dbb8183612621565b9a9950505050505050505050565b601f19601f830116810181811067ffffffffffffffff82111715612def57612def61274e565b6040525050565b6000612e0160405190565b9050612e0d8282612dc9565b919050565b600067ffffffffffffffff821115612e2c57612e2c61274e565b5060200290565b8051611e6c565b6000612e4d612e4884612e12565b612df6565b90508060208402830185811115612e6657612e66600080fd5b835b81811015612e8857612e7a8782612e33565b835260209283019201612e68565b5050509392505050565b600082601f830112612ea657612ea6600080fd5b60126123de848285612e3a565b60006102408284031215612ec957612ec9600080fd5b60006123de8484612e92565b80820180821115611e6c57611e6c6125ce565b8181028115828204841417611e6c57611e6c6125ce565b60006000198203612f1257612f126125ce565b5060010190565b600081525b60010190565b612f2d81612f19565b9050611e6c8183612621565b61ffff918216919081169082820190811115611e6c57611e6c6125ce565b612f61818a612621565b9050612f6d8189612621565b9050612f798188612621565b9050612f858187612621565b9050612f918186612621565b9050612f9d8185612621565b9050612fa98184612621565b9050612fb58183612621565b9998505050505050505050565b60ff1660007fffffffffffffffffffffffffffffffffffffffffffffffffffffffffffffff018201612f1257612f126125ce565b805b82525050565b6040808252810161300f818561240a565b905061078e6020830184612ff6565b7f63000000000000000000000000000000000000000000000000000000000000008152612f1e565b6000611e6c8260e01b90565b612ff863ffffffff8216613046565b61306a8161301e565b90506130768184613052565b6004016130a6817f80600e6000396000f30000000000000000000000000000000000000000000000815260090190565b905061078e8183612621565b61ffff9182169190811690828202908116908181146130d3576130d36125ce565b5092915050565b7f50484a6c593351674943426d615778735053636a000000000000000000000000815260140161310a818b612621565b67253ca0b3b2a2183760c11b81529050600801613127818a612621565b67253ca0b3b2aa183760c11b815290506008016131448189612621565b7f4a794176506a78795a574e304943426d615778735053636a0000000000000000815290506018016131768188612621565b67253ca0b3b2a2183760c11b815290506008016131938187612621565b67253ca0b3b2aa183760c11b815290506008016131b08186612621565b7f4a794176506a78795a574e304943426d615778735053636a0000000000000000815290506018016131e28185612621565b67253ca0b3b2a2183760c11b815290506008016131ff8184612621565b67253ca0b3b2aa183760c11b81529050600801612dbb8183612621565b7f4a794176506a78795a574e304943426d615778735053636a0000000000000000815260180161324c818b612621565b67253ca0b3b2a2183760c11b81529050600801613269818a612621565b67253ca0b3b2aa183760c11b815290506008016132868189612621565b7f4a794176506a78795a574e304943426d615778735053636a0000000000000000815290506018016132b88188612621565b67253ca0b3b2a2183760c11b815290506008016132d58187612621565b67253ca0b3b2aa183760c11b815290506008016132f28186612621565b7f4a794176506a78795a574e304943426d615778735053636a0000000000000000815290506018016133248185612621565b67253ca0b3b2a2183760c11b815290506008016133418184612621565b67253ca0b3b2aa183760c11b8152905060080161335e8183612621565b7f4a7941674943382b00000000000000000000000000000000000000000000000081526008019a9950505050505050505050565b6130a68184612621565b606081016133aa8286612ff6565b6133b76020830185612ff6565b6123de6040830184612ff656fe49434138636d566a6443426a6247467a637a306e627963675a6d6c736244306e497a4933596a673159536367494867394a7a416e49434235505363774a79382b49434138636d566a6443426a6247467a637a306e627963675a6d6c736244306e497a63304d6a64694f436367494867394a7a416e49434235505363774a79382b49434138636d566a6443426a6247467a637a306e627963675a6d6c736244306e497a49334e3256694f436367494867394a7a416e49434235505363774a79382b4142434445464748494a4b4c4d4e4f505152535455565758595a6162636465666768696a6b6c6d6e6f707172737475767778797a303132333435363738392b2f49434138636d566a6443426a6247467a637a306e627963675a6d6c736244306e493251324e5445314d536367494867394a7a416e49434235505363774a79382b49434138636d566a6443426a6247467a637a306e627963675a6d6c736244306e493259335a4751314f536367494867394a7a416e49434235505363774a79382ba264697066735822122065e6697f37d0b520dfb8e5b4760cab2b9b661d5afa59e6673d74a7832a133e8664736f6c63430008110033",
    "linkReferences": {},
    "deployedLinkReferences": {}
}