{
  "_format": "hh-sol-artifact-1",
  "contractName": "NFTraits",
  "sourceName": "contracts/NFTraits.sol",
  "abi": [
    {
      "inputs": [
        {
          "internalType": "address",
          "name": "_linkAddress",
          "type": "address"
        },
        {
          "internalType": "address",
          "name": "_vrfWrapperAddress",
          "type": "address"
        }
      ],
      "stateMutability": "nonpayable",
      "type": "constructor"
    },
    {
      "anonymous": false,
      "inputs": [
        {
          "indexed": true,
          "internalType": "address",
          "name": "account",
          "type": "address"
        },
        {
          "indexed": true,
          "internalType": "address",
          "name": "operator",
          "type": "address"
        },
        {
          "indexed": false,
          "internalType": "bool",
          "name": "approved",
          "type": "bool"
        }
      ],
      "name": "ApprovalForAll",
      "type": "event"
    },
    {
      "anonymous": false,
      "inputs": [
        {
          "indexed": false,
          "internalType": "uint256",
          "name": "requestId",
          "type": "uint256"
        }
      ],
      "name": "MintRandomRequest",
      "type": "event"
    },
    {
      "anonymous": false,
      "inputs": [
        {
          "indexed": false,
          "internalType": "uint256",
          "name": "requestId",
          "type": "uint256"
        },
        {
          "indexed": false,
          "internalType": "uint256[]",
          "name": "ids",
          "type": "uint256[]"
        }
      ],
      "name": "MintRequestFulfilled",
      "type": "event"
    },
    {
      "anonymous": false,
      "inputs": [
        {
          "indexed": false,
          "internalType": "bool",
          "name": "status",
          "type": "bool"
        }
      ],
      "name": "OpenStatus",
      "type": "event"
    },
    {
      "anonymous": false,
      "inputs": [
        {
          "indexed": true,
          "internalType": "address",
          "name": "previousOwner",
          "type": "address"
        },
        {
          "indexed": true,
          "internalType": "address",
          "name": "newOwner",
          "type": "address"
        }
      ],
      "name": "OwnershipTransferred",
      "type": "event"
    },
    {
      "anonymous": false,
      "inputs": [
        {
          "indexed": true,
          "internalType": "address",
          "name": "operator",
          "type": "address"
        },
        {
          "indexed": true,
          "internalType": "address",
          "name": "from",
          "type": "address"
        },
        {
          "indexed": true,
          "internalType": "address",
          "name": "to",
          "type": "address"
        },
        {
          "indexed": false,
          "internalType": "uint256[]",
          "name": "ids",
          "type": "uint256[]"
        },
        {
          "indexed": false,
          "internalType": "uint256[]",
          "name": "values",
          "type": "uint256[]"
        }
      ],
      "name": "TransferBatch",
      "type": "event"
    },
    {
      "anonymous": false,
      "inputs": [
        {
          "indexed": true,
          "internalType": "address",
          "name": "operator",
          "type": "address"
        },
        {
          "indexed": true,
          "internalType": "address",
          "name": "from",
          "type": "address"
        },
        {
          "indexed": true,
          "internalType": "address",
          "name": "to",
          "type": "address"
        },
        {
          "indexed": false,
          "internalType": "uint256",
          "name": "id",
          "type": "uint256"
        },
        {
          "indexed": false,
          "internalType": "uint256",
          "name": "value",
          "type": "uint256"
        }
      ],
      "name": "TransferSingle",
      "type": "event"
    },
    {
      "anonymous": false,
      "inputs": [
        {
          "indexed": false,
          "internalType": "string",
          "name": "value",
          "type": "string"
        },
        {
          "indexed": true,
          "internalType": "uint256",
          "name": "id",
          "type": "uint256"
        }
      ],
      "name": "URI",
      "type": "event"
    },
    {
      "inputs": [
        {
          "internalType": "uint256",
          "name": "",
          "type": "uint256"
        },
        {
          "internalType": "uint256",
          "name": "",
          "type": "uint256"
        }
      ],
      "name": "BlergFreeMints",
      "outputs": [
        {
          "internalType": "bool",
          "name": "",
          "type": "bool"
        }
      ],
      "stateMutability": "view",
      "type": "function"
    },
    {
      "inputs": [],
      "name": "OPEN",
      "outputs": [
        {
          "internalType": "bool",
          "name": "",
          "type": "bool"
        }
      ],
      "stateMutability": "view",
      "type": "function"
    },
    {
      "inputs": [],
      "name": "activeSeason",
      "outputs": [
        {
          "internalType": "uint256",
          "name": "",
          "type": "uint256"
        }
      ],
      "stateMutability": "view",
      "type": "function"
    },
    {
      "inputs": [
        {
          "internalType": "uint256",
          "name": "_seasonId",
          "type": "uint256"
        },
        {
          "internalType": "address",
          "name": "_metadataAddress",
          "type": "address"
        }
      ],
      "name": "addSeason",
      "outputs": [],
      "stateMutability": "nonpayable",
      "type": "function"
    },
    {
      "inputs": [
        {
          "internalType": "address",
          "name": "account",
          "type": "address"
        },
        {
          "internalType": "uint256",
          "name": "id",
          "type": "uint256"
        }
      ],
      "name": "balanceOf",
      "outputs": [
        {
          "internalType": "uint256",
          "name": "",
          "type": "uint256"
        }
      ],
      "stateMutability": "view",
      "type": "function"
    },
    {
      "inputs": [
        {
          "internalType": "address[]",
          "name": "accounts",
          "type": "address[]"
        },
        {
          "internalType": "uint256[]",
          "name": "ids",
          "type": "uint256[]"
        }
      ],
      "name": "balanceOfBatch",
      "outputs": [
        {
          "internalType": "uint256[]",
          "name": "",
          "type": "uint256[]"
        }
      ],
      "stateMutability": "view",
      "type": "function"
    },
    {
      "inputs": [],
      "name": "batchesMinted",
      "outputs": [
        {
          "internalType": "uint256",
          "name": "",
          "type": "uint256"
        }
      ],
      "stateMutability": "view",
      "type": "function"
    },
    {
      "inputs": [],
      "name": "callbackGasLimit",
      "outputs": [
        {
          "internalType": "uint32",
          "name": "",
          "type": "uint32"
        }
      ],
      "stateMutability": "view",
      "type": "function"
    },
    {
      "inputs": [
        {
          "internalType": "uint256",
          "name": "id",
          "type": "uint256"
        }
      ],
      "name": "exists",
      "outputs": [
        {
          "internalType": "bool",
          "name": "",
          "type": "bool"
        }
      ],
      "stateMutability": "view",
      "type": "function"
    },
    {
      "inputs": [],
      "name": "flipOpenState",
      "outputs": [],
      "stateMutability": "nonpayable",
      "type": "function"
    },
    {
      "inputs": [
        {
          "internalType": "uint256",
          "name": "requestId",
          "type": "uint256"
        }
      ],
      "name": "getStatus",
      "outputs": [
        {
          "components": [
            {
              "internalType": "uint256",
              "name": "fees",
              "type": "uint256"
            },
            {
              "internalType": "uint256[]",
              "name": "ids",
              "type": "uint256[]"
            },
            {
              "internalType": "address",
              "name": "sender",
              "type": "address"
            },
            {
              "internalType": "bool",
              "name": "fulfilled",
              "type": "bool"
            }
          ],
          "internalType": "struct NFTraits.mintStatus",
          "name": "",
          "type": "tuple"
        }
      ],
      "stateMutability": "view",
      "type": "function"
    },
    {
      "inputs": [
        {
          "internalType": "address",
          "name": "account",
          "type": "address"
        },
        {
          "internalType": "address",
          "name": "operator",
          "type": "address"
        }
      ],
      "name": "isApprovedForAll",
      "outputs": [
        {
          "internalType": "bool",
          "name": "",
          "type": "bool"
        }
      ],
      "stateMutability": "view",
      "type": "function"
    },
    {
      "inputs": [
        {
          "internalType": "uint256",
          "name": "",
          "type": "uint256"
        }
      ],
      "name": "maxMintsPerSeason",
      "outputs": [
        {
          "internalType": "uint256",
          "name": "",
          "type": "uint256"
        }
      ],
      "stateMutability": "view",
      "type": "function"
    },
    {
      "inputs": [],
      "name": "mintPrice",
      "outputs": [
        {
          "internalType": "uint256",
          "name": "",
          "type": "uint256"
        }
      ],
      "stateMutability": "view",
      "type": "function"
    },
    {
      "inputs": [],
      "name": "mintTraits",
      "outputs": [
        {
          "internalType": "uint256",
          "name": "",
          "type": "uint256"
        }
      ],
      "stateMutability": "payable",
      "type": "function"
    },
    {
      "inputs": [
        {
          "internalType": "uint256",
          "name": "tokenId",
          "type": "uint256"
        }
      ],
      "name": "mintTraitsWithBlerg",
      "outputs": [
        {
          "internalType": "uint256",
          "name": "",
          "type": "uint256"
        }
      ],
      "stateMutability": "nonpayable",
      "type": "function"
    },
    {
      "inputs": [
        {
          "internalType": "uint256",
          "name": "",
          "type": "uint256"
        }
      ],
      "name": "minted1of1",
      "outputs": [
        {
          "internalType": "bool",
          "name": "",
          "type": "bool"
        }
      ],
      "stateMutability": "view",
      "type": "function"
    },
    {
      "inputs": [],
      "name": "name",
      "outputs": [
        {
          "internalType": "string",
          "name": "",
          "type": "string"
        }
      ],
      "stateMutability": "view",
      "type": "function"
    },
    {
      "inputs": [],
      "name": "owner",
      "outputs": [
        {
          "internalType": "address",
          "name": "",
          "type": "address"
        }
      ],
      "stateMutability": "view",
      "type": "function"
    },
    {
      "inputs": [
        {
          "internalType": "uint256",
          "name": "_requestId",
          "type": "uint256"
        },
        {
          "internalType": "uint256[]",
          "name": "_randomWords",
          "type": "uint256[]"
        }
      ],
      "name": "rawFulfillRandomWords",
      "outputs": [],
      "stateMutability": "nonpayable",
      "type": "function"
    },
    {
      "inputs": [],
      "name": "renounceOwnership",
      "outputs": [],
      "stateMutability": "nonpayable",
      "type": "function"
    },
    {
      "inputs": [
        {
          "internalType": "address",
          "name": "from",
          "type": "address"
        },
        {
          "internalType": "address",
          "name": "to",
          "type": "address"
        },
        {
          "internalType": "uint256[]",
          "name": "ids",
          "type": "uint256[]"
        },
        {
          "internalType": "uint256[]",
          "name": "amounts",
          "type": "uint256[]"
        },
        {
          "internalType": "bytes",
          "name": "data",
          "type": "bytes"
        }
      ],
      "name": "safeBatchTransferFrom",
      "outputs": [],
      "stateMutability": "nonpayable",
      "type": "function"
    },
    {
      "inputs": [
        {
          "internalType": "address",
          "name": "from",
          "type": "address"
        },
        {
          "internalType": "address",
          "name": "to",
          "type": "address"
        },
        {
          "internalType": "uint256",
          "name": "id",
          "type": "uint256"
        },
        {
          "internalType": "uint256",
          "name": "amount",
          "type": "uint256"
        },
        {
          "internalType": "bytes",
          "name": "data",
          "type": "bytes"
        }
      ],
      "name": "safeTransferFrom",
      "outputs": [],
      "stateMutability": "nonpayable",
      "type": "function"
    },
    {
      "inputs": [
        {
          "internalType": "uint256",
          "name": "",
          "type": "uint256"
        }
      ],
      "name": "seasons",
      "outputs": [
        {
          "internalType": "uint256",
          "name": "id",
          "type": "uint256"
        },
        {
          "internalType": "address",
          "name": "metadataAddress",
          "type": "address"
        }
      ],
      "stateMutability": "view",
      "type": "function"
    },
    {
      "inputs": [
        {
          "internalType": "uint256",
          "name": "_seasonId",
          "type": "uint256"
        }
      ],
      "name": "setActiveSeason",
      "outputs": [],
      "stateMutability": "nonpayable",
      "type": "function"
    },
    {
      "inputs": [
        {
          "internalType": "address",
          "name": "operator",
          "type": "address"
        },
        {
          "internalType": "bool",
          "name": "approved",
          "type": "bool"
        }
      ],
      "name": "setApprovalForAll",
      "outputs": [],
      "stateMutability": "nonpayable",
      "type": "function"
    },
    {
      "inputs": [
        {
          "internalType": "address",
          "name": "_blergsTokenAddress",
          "type": "address"
        }
      ],
      "name": "setBlergsTokenAddress",
      "outputs": [],
      "stateMutability": "nonpayable",
      "type": "function"
    },
    {
      "inputs": [
        {
          "internalType": "uint32",
          "name": "_callbackGasLimit",
          "type": "uint32"
        }
      ],
      "name": "setCallbackGasLimit",
      "outputs": [],
      "stateMutability": "nonpayable",
      "type": "function"
    },
    {
      "inputs": [
        {
          "internalType": "uint256",
          "name": "_price",
          "type": "uint256"
        }
      ],
      "name": "setNewPrice",
      "outputs": [],
      "stateMutability": "nonpayable",
      "type": "function"
    },
    {
      "inputs": [
        {
          "internalType": "uint256",
          "name": "",
          "type": "uint256"
        }
      ],
      "name": "statuses",
      "outputs": [
        {
          "internalType": "uint256",
          "name": "fees",
          "type": "uint256"
        },
        {
          "internalType": "address",
          "name": "sender",
          "type": "address"
        },
        {
          "internalType": "bool",
          "name": "fulfilled",
          "type": "bool"
        }
      ],
      "stateMutability": "view",
      "type": "function"
    },
    {
      "inputs": [
        {
          "internalType": "bytes4",
          "name": "interfaceId",
          "type": "bytes4"
        }
      ],
      "name": "supportsInterface",
      "outputs": [
        {
          "internalType": "bool",
          "name": "",
          "type": "bool"
        }
      ],
      "stateMutability": "view",
      "type": "function"
    },
    {
      "inputs": [],
      "name": "symbol",
      "outputs": [
        {
          "internalType": "string",
          "name": "",
          "type": "string"
        }
      ],
      "stateMutability": "view",
      "type": "function"
    },
    {
      "inputs": [
        {
          "internalType": "uint256",
          "name": "id",
          "type": "uint256"
        }
      ],
      "name": "totalSupply",
      "outputs": [
        {
          "internalType": "uint256",
          "name": "",
          "type": "uint256"
        }
      ],
      "stateMutability": "view",
      "type": "function"
    },
    {
      "inputs": [
        {
          "internalType": "address",
          "name": "newOwner",
          "type": "address"
        }
      ],
      "name": "transferOwnership",
      "outputs": [],
      "stateMutability": "nonpayable",
      "type": "function"
    },
    {
      "inputs": [
        {
          "internalType": "uint256",
          "name": "tokenId",
          "type": "uint256"
        }
      ],
      "name": "uri",
      "outputs": [
        {
          "internalType": "string",
          "name": "tokenUri",
          "type": "string"
        }
      ],
      "stateMutability": "view",
      "type": "function"
    },
    {
      "inputs": [],
      "name": "withdraw",
      "outputs": [],
      "stateMutability": "nonpayable",
      "type": "function"
    }
  ],
  "bytecode": "0x610100604052600860c0908152674e4654726169747360c01b60e0526005906200002a90826200048c565b50604080518082019091526005815264151c985a5d60da1b60208201526006906200005690826200048c565b50600a805463ffffffff1916620c35001790556040805160e081018252600081526103e86020820152610dac91810191909152611d4c6060820152612cec6080820152614c2c60a0820152618aac60c0820152620000b990600c90600762000277565b506001600d556000600e8190556040805160a08101825291825260fa60208301526101f4908201526105dc6060820152610abe60808201526200010190600f906005620002cd565b506040805160a08101825260fa81526101f460208201526105dc91810191909152610abe6060820152611388608082015262000142906010906005620002cd565b506040805160a08101825260018152600a60208201526064918101919091526103e86060820152612710608082015262000181906011906005620002cd565b5066049e57d63540006013556014805460ff19169055348015620001a457600080fd5b50604051620044a4380380620044a4833981016040819052620001c79162000591565b60408051808201909152600381526213919560ea1b60208201526001600160a01b03808416608052821660a052620001ff8162000213565b506200020b3362000225565b5050620005d4565b60026200022182826200048c565b5050565b600380546001600160a01b038381166001600160a01b0319831681179093556040519116919082907f8be0079c531659141344cd1fd0a4f28419497f9722a3daafe3b4186f6b6457e090600090a35050565b828054828255906000526020600020908101928215620002bb579160200282015b82811115620002bb578251829061ffff1690559160200191906001019062000298565b50620002c992915062000360565b5090565b600183019183908215620002bb5791602002820160005b838211156200032657835183826101000a81548161ffff021916908361ffff1602179055509260200192600201602081600101049283019260010302620002e4565b8015620003565782816101000a81549061ffff021916905560020160208160010104928301926001030262000326565b5050620002c99291505b5b80821115620002c9576000815560010162000361565b634e487b7160e01b600052604160045260246000fd5b634e487b7160e01b600052602260045260246000fd5b600281046001821680620003b857607f821691505b602082108103620003cd57620003cd6200038d565b50919050565b6000620003e4620003e18381565b90565b92915050565b620003f583620003d3565b81546008840282811b60001990911b908116901990911617825550505050565b600062000424818484620003ea565b505050565b8181101562000221576200043f60008262000415565b60010162000429565b601f82111562000424576000818152602090206020601f85010481016020851015620004715750805b620004856020601f86010483018262000429565b5050505050565b81516001600160401b03811115620004a857620004a862000377565b620004b48254620003a3565b620004c182828562000448565b506020601f821160018114620004f95760008315620004e05750848201515b600019600885021c198116600285021785555062000485565b600084815260208120601f198516915b828110156200052b578785015182556020948501946001909201910162000509565b5084821015620005495783870151600019601f87166008021c191681555b50505050600202600101905550565b60006001600160a01b038216620003e4565b620005758162000558565b81146200058157600080fd5b50565b8051620003e4816200056a565b60008060408385031215620005a957620005a9600080fd5b6000620005b7858562000584565b9250506020620005ca8582860162000584565b9150509250929050565b60805160a051613e8e6200061660003960008181610adb01528181611a0401528181612482015281816124a301526125b6015260006124530152613e8e6000f3fe60806040526004361061024e5760003560e01c80637c8a0c4511610138578063e67b932c116100b0578063f242432a1161007f578063f5d709a111610064578063f5d709a1146106e9578063f8c6ed9914610734578063fd5bf3311461076f57600080fd5b8063f242432a146106a9578063f2fde38b146106c957600080fd5b8063e67b932c146105c8578063e985e9c514610620578063e9bcce9b14610669578063ee8cdd4e1461068957600080fd5b8063a22cb46511610107578063bd85b039116100ec578063bd85b03914610561578063d1b9c4301461058e578063e459e23f146105a857600080fd5b8063a22cb46514610521578063a4eb718c1461054157600080fd5b80637c8a0c45146104965780638264396f146104b65780638da5cb5b146104e657806395d89b411461050c57600080fd5b80633ccfd60b116101cb5780635c622a0e1161019a5780636817c76c1161017f5780636817c76c14610455578063715018a61461046b57806377b4285a1461048057600080fd5b80635c622a0e14610413578063628617e11461044057600080fd5b80633ccfd60b1461038257806342db8bfc146103975780634e1273f4146103b75780634f558e79146103e457600080fd5b806311adf2b81161022257806324f746971161020757806324f74697146103305780632eb2c2d61461035a5780633c51f49e1461037a57600080fd5b806311adf2b8146102f85780631fe543e31461030e57600080fd5b8062fdd58e1461025357806301ffc9a71461028957806306fdde03146102b65780630e89341c146102d8575b600080fd5b34801561025f57600080fd5b5061027361026e36600461298a565b61078f565b60405161028091906129cf565b60405180910390f35b34801561029557600080fd5b506102a96102a4366004612a10565b6107e9565b6040516102809190612a39565b3480156102c257600080fd5b506102cb6108cc565b6040516102809190612a9d565b3480156102e457600080fd5b506102cb6102f3366004612aae565b61095a565b34801561030457600080fd5b50610273600d5481565b34801561031a57600080fd5b5061032e610329366004612bd4565b610ad0565b005b34801561033c57600080fd5b50600a5461034d9063ffffffff1681565b6040516102809190612c2e565b34801561036657600080fd5b5061032e610375366004612ccb565b610b26565b610273610b72565b34801561038e57600080fd5b5061032e610c06565b3480156103a357600080fd5b5061032e6103b2366004612d94565b610c78565b3480156103c357600080fd5b506103d76103d2366004612e28565b610cc2565b6040516102809190612ec2565b3480156103f057600080fd5b506102a96103ff366004612aae565b600090815260046020526040902054151590565b34801561041f57600080fd5b5061043361042e366004612aae565b610daa565b6040516102809190612f6d565b34801561044c57600080fd5b5061032e610e82565b34801561046157600080fd5b5061027360135481565b34801561047757600080fd5b5061032e610ed9565b34801561048c57600080fd5b50610273600e5481565b3480156104a257600080fd5b5061032e6104b1366004612f7e565b610eed565b3480156104c257600080fd5b506102a96104d1366004612aae565b600b6020526000908152604090205460ff1681565b3480156104f257600080fd5b506003546001600160a01b03166040516102809190612fb1565b34801561051857600080fd5b506102cb610f5b565b34801561052d57600080fd5b5061032e61053c366004612fd2565b610f68565b34801561054d57600080fd5b5061032e61055c36600461301c565b610f73565b34801561056d57600080fd5b5061027361057c366004612aae565b60009081526004602052604090205490565b34801561059a57600080fd5b506014546102a99060ff1681565b3480156105b457600080fd5b5061032e6105c3366004612aae565b610fb2565b3480156105d457600080fd5b506106116105e3366004612aae565b600760205260009081526040902080546002909101546001600160a01b03811690600160a01b900460ff1683565b6040516102809392919061303d565b34801561062c57600080fd5b506102a961063b366004613065565b6001600160a01b03918216600090815260016020908152604080832093909416825291909152205460ff1690565b34801561067557600080fd5b50610273610684366004612aae565b610fbf565b34801561069557600080fd5b5061032e6106a4366004612aae565b61114a565b3480156106b557600080fd5b5061032e6106c4366004613087565b611157565b3480156106d557600080fd5b5061032e6106e4366004612d94565b61119c565b3480156106f557600080fd5b50610726610704366004612aae565b600860205260009081526040902080546001909101546001600160a01b031682565b6040516102809291906130e1565b34801561074057600080fd5b506102a961074f3660046130fc565b600960209081526000928352604080842090915290825290205460ff1681565b34801561077b57600080fd5b5061027361078a366004612aae565b6111d6565b60006001600160a01b0383166107c05760405162461bcd60e51b81526004016107b790613178565b60405180910390fd5b506000818152602081815260408083206001600160a01b03861684529091529020545b92915050565b60007fffffffff0000000000000000000000000000000000000000000000000000000082167fd9b67a2600000000000000000000000000000000000000000000000000000000148061087c57507fffffffff0000000000000000000000000000000000000000000000000000000082167f0e89341c00000000000000000000000000000000000000000000000000000000145b806107e357507f01ffc9a7000000000000000000000000000000000000000000000000000000007fffffffff000000000000000000000000000000000000000000000000000000008316146107e3565b600580546108d99061319e565b80601f01602080910402602001604051908101604052809291908181526020018280546109059061319e565b80156109525780601f1061092757610100808354040283529160200191610952565b820191906000526020600020905b81548152906001019060200180831161093557829003601f168201915b505050505081565b60606000600561096a81856131e0565b610974908561320a565b61097e919061321d565b905060005b6005811015610ac957600f816005811061099f5761099f613231565b601091828204019190066002029054906101000a900461ffff1661ffff1682101580156109fb5750601081600581106109da576109da613231565b601091828204019190066002029054906101000a900461ffff1661ffff1682105b15610ab75760086000610a0f836001613247565b8152602081019190915260409081016000206001015490517fc8234ac80000000000000000000000000000000000000000000000000000000081526001600160a01b039091169063c8234ac890610a6a9087906004016129cf565b600060405180830381865afa158015610a87573d6000803e3d6000fd5b505050506040513d6000823e601f3d908101601f19168201604052610aaf91908101906132b2565b949350505050565b80610ac1816132ed565b915050610983565b5050919050565b336001600160a01b037f00000000000000000000000000000000000000000000000000000000000000001614610b185760405162461bcd60e51b81526004016107b790613339565b610b2282826111f7565b5050565b6001600160a01b038516331480610b425750610b42853361063b565b610b5e5760405162461bcd60e51b81526004016107b7906133a1565b610b6b85858585856117df565b5050505050565b60145460009060ff16610b975760405162461bcd60e51b81526004016107b7906133e3565b601354341015610bb95760405162461bcd60e51b81526004016107b790613425565b600c600d5481548110610bce57610bce613231565b9060005260206000200154600e5410610bf95760405162461bcd60e51b81526004016107b790613467565b610c01611989565b905090565b610c0e611b5e565b6040514790600090339083908381818185875af1925050503d8060008114610c52576040519150601f19603f3d011682016040523d82523d6000602084013e610c57565b606091505b5050905080610b225760405162461bcd60e51b81526004016107b7906134a9565b610c80611b5e565b600a80546001600160a01b03909216640100000000027fffffffffffffffff0000000000000000000000000000000000000000ffffffff909216919091179055565b60608151835114610ce55760405162461bcd60e51b81526004016107b790613511565b6000835167ffffffffffffffff811115610d0157610d01612acf565b604051908082528060200260200182016040528015610d2a578160200160208202803683370190505b50905060005b8451811015610da257610d75858281518110610d4e57610d4e613231565b6020026020010151858381518110610d6857610d68613231565b602002602001015161078f565b828281518110610d8757610d87613231565b6020908102919091010152610d9b816132ed565b9050610d30565b509392505050565b610de06040518060800160405280600081526020016060815260200160006001600160a01b031681526020016000151581525090565b60008281526007602090815260409182902082516080810184528154815260018201805485518186028101860190965280865291949293858101939290830182828015610e4c57602002820191906000526020600020905b815481526020019060010190808311610e38575b5050509183525050600291909101546001600160a01b0381166020830152600160a01b900460ff16151560409091015292915050565b610e8a611b5e565b6014805460ff19811660ff918216159081179092556040517f7c5a08e39c93cac64c0d298acd4b3ace46d1c1cc41e261ac6085cc721c69844492610ecf921690612a39565b60405180910390a1565b610ee1611b5e565b610eeb6000611b88565b565b610ef5611b5e565b6040805180820182528381526001600160a01b039283166020808301918252600095865260089052919093209251835551600190920180547fffffffffffffffffffffffff00000000000000000000000000000000000000001692909116919091179055565b600680546108d99061319e565b610b22338383611bf2565b610f7b611b5e565b600a80547fffffffffffffffffffffffffffffffffffffffffffffffffffffffff000000001663ffffffff92909216919091179055565b610fba611b5e565b600d55565b60145460009060ff16610fe45760405162461bcd60e51b81526004016107b7906133e3565b6000828152600960209081526040808320600d54845290915290205460ff1615156001036110245760405162461bcd60e51b81526004016107b790613553565b600a546040517f6352211e000000000000000000000000000000000000000000000000000000008152339164010000000090046001600160a01b031690636352211e906110759086906004016129cf565b602060405180830381865afa158015611092573d6000803e3d6000fd5b505050506040513d601f19601f820116820180604052508101906110b6919061356e565b6001600160a01b0316146110dc5760405162461bcd60e51b81526004016107b7906135c1565b600c600d54815481106110f1576110f1613231565b9060005260206000200154600e541061111c5760405162461bcd60e51b81526004016107b790613467565b6000828152600960209081526040808320600d5484529091529020805460ff191660011790556107e3611989565b611152611b5e565b601355565b6001600160a01b0385163314806111735750611173853361063b565b61118f5760405162461bcd60e51b81526004016107b7906133a1565b610b6b8585858585611c94565b6111a4611b5e565b6001600160a01b0381166111ca5760405162461bcd60e51b81526004016107b790613629565b6111d381611b88565b50565b600c81815481106111e657600080fd5b600091825260209091200154905081565b6000828152600760205260409020546112225760405162461bcd60e51b81526004016107b79061366b565b600061126f600d548360088560008151811061124057611240613231565b602002602001015161125291906131e0565b8151811061126257611262613231565b6020026020010151611dd8565b600084815260076020526040812060020180547fffffffffffffffffffffff00ffffffffffffffffffffffffffffffffffffffff16600160a01b1790559091505b600881101561168b576112f86040518060400160405280600681526020017f4c6f6f703a20000000000000000000000000000000000000000000000000000081525082611f47565b6000600f61130760018561320a565b6005811061131757611317613231565b60108082049290920154600f9091166002026101000a900461ffff169061133f60018661320a565b6005811061134f5761134f613231565b601091828204019190066002029054906101000a900461ffff1661ffff1685848151811061137f5761137f613231565b602002602001015161139191906131e0565b61139b9190613247565b90506113dc6040518060400160405280600981526020017f67726f757049643a20000000000000000000000000000000000000000000000081525082611f47565b60006101f48560016113ef86600861320a565b6113f9919061320a565b8151811061140957611409613231565b602002602001015161141b91906131e0565b611426906001613247565b90506114676040518060400160405280600381526020017f523a20000000000000000000000000000000000000000000000000000000000081525082611f47565b60008681526007602052604081206002015461148d9083906001600160a01b0316611fba565b90506114ce6040518060400160405280600c81526020017f72617269747952616e6b3a20000000000000000000000000000000000000000081525082611f47565b6000816114dc85600561367b565b6114e69190613247565b90506115276040518060400160405280600981526020017f746f6b656e49643a20000000000000000000000000000000000000000000000081525082611f47565b81600414801561154557506000848152600b602052604090205460ff165b1561159b5761155560018261320a565b90506115966040518060400160405280600981526020017f746f6b656e49643a20000000000000000000000000000000000000000000000081525082611f47565b611601565b81600503611601576000818152600b6020908152604091829020805460ff191660019081179091558251808401909352600c83527f6d696e746564316f66313a200000000000000000000000000000000000000000918301919091526116019190612113565b600088815260076020526040902060010180548291908790811061162757611627613231565b90600052602060002001819055506116746040518060400160405280600b81526020017f7265717565737449643a2000000000000000000000000000000000000000000081525089611f47565b505050508080611683906132ed565b9150506112b0565b506040805160088082526101208201909252600091602082016101008036833701905050905060005b60088110156116ee5760018282815181106116d1576116d1613231565b6020908102919091010152806116e6816132ed565b9150506116b4565b506001600e60008282546117029190613247565b909155505060008481526007602090815260409182902060028101546001909101805484518185028101850190955280855261178e946001600160a01b039093169383018282801561177357602002820191906000526020600020905b81548152602001906001019080831161175f575b50505050508360405180602001604052806000815250612186565b6000848152600760205260409081902090517ffbd938a37902fb5851500a54e0d2c401ab07cb15d2b86291ad0356f256d2f19c916117d1918791600101906136ef565b60405180910390a150505050565b81518351146118005760405162461bcd60e51b81526004016107b790613767565b6001600160a01b0384166118265760405162461bcd60e51b81526004016107b7906137cf565b336118358187878787876122e0565b60005b845181101561191b57600085828151811061185557611855613231565b60200260200101519050600085838151811061187357611873613231565b602090810291909101810151600084815280835260408082206001600160a01b038e1683529093529190912054909150818110156118c35760405162461bcd60e51b81526004016107b790613837565b6000838152602081815260408083206001600160a01b038e8116855292528083208585039055908b16825281208054849290611900908490613247565b9250508190555050505080611914906132ed565b9050611838565b50846001600160a01b0316866001600160a01b0316826001600160a01b03167f4a39dc06d4c0dbc64b70af90fd698a233a518aa5d07e595d983b8c0526c8f7fb878760405161196b929190613847565b60405180910390a46119818187878787876122ee565b505050505050565b600a5460009081906119a49063ffffffff166003600861244f565b60408051600880825261012082019092529192506000919060208201610100803683375050604080516080810191829052600a547f4306d354000000000000000000000000000000000000000000000000000000009092529293508291507f00000000000000000000000000000000000000000000000000000000000000006001600160a01b031690634306d35490611a469063ffffffff1660848501612c2e565b602060405180830381865afa158015611a63573d6000803e3d6000fd5b505050506040513d601f19601f82011682018060405250810190611a879190613877565b81526020808201849052336040808401919091526000606090930183905285835260078252909120825181558282015180519192611acd926001850192909101906128e9565b50604082810151600290920180546060909401511515600160a01b027fffffffffffffffffffffff0000000000000000000000000000000000000000009094166001600160a01b0390931692909217929092179055517faed40c057f11fa628783a734718efc188e5e27418a76bad908cda43270dcd9ed90611b509084906129cf565b60405180910390a150919050565b6003546001600160a01b03163314610eeb5760405162461bcd60e51b81526004016107b7906138c8565b600380546001600160a01b038381167fffffffffffffffffffffffff0000000000000000000000000000000000000000831681179093556040519116919082907f8be0079c531659141344cd1fd0a4f28419497f9722a3daafe3b4186f6b6457e090600090a35050565b816001600160a01b0316836001600160a01b031603611c235760405162461bcd60e51b81526004016107b790613930565b6001600160a01b0383811660008181526001602090815260408083209487168084529490915290819020805460ff1916851515179055517f17307eab39ab6107e8899845ad3d59bd9653f200f220920489ca2b5937696c3190611c87908590612a39565b60405180910390a3505050565b6001600160a01b038416611cba5760405162461bcd60e51b81526004016107b7906137cf565b336000611cc685612640565b90506000611cd385612640565b9050611ce38389898585896122e0565b6000868152602081815260408083206001600160a01b038c16845290915290205485811015611d245760405162461bcd60e51b81526004016107b790613837565b6000878152602081815260408083206001600160a01b038d8116855292528083208985039055908a16825281208054889290611d61908490613247565b92505081905550876001600160a01b0316896001600160a01b0316856001600160a01b03167fc3d58168c5ae7397731d063d5bbf3d657854427343f4c083240f7aacaa2d0f628a8a604051611db7929190613940565b60405180910390a4611dcd848a8a8a8a8a61268b565b505050505050505050565b600082600103611dea575060016107e3565b601280546001818101835560009283527fbb8a6a4669ba250d26cd7a459eca9d215f8307e33aebe50379bc5a3617ec3444909101819055601190611e2e908661320a565b60058110611e3e57611e3e613231565b601091828204019190066002029054906101000a900461ffff1661ffff1683611e6791906131e0565b905060025b848111611ee2576000611e8060028361320a565b90506000611e8f82600a613a69565b611e9a90600961367b565b601280546001810182556000919091527fbb8a6a4669ba250d26cd7a459eca9d215f8307e33aebe50379bc5a3617ec3444015550819050611eda816132ed565b915050611e6c565b5060005b601254811015611f3b5760128181548110611f0357611f03613231565b9060005260206000200154821015611f2957611f20816001613247565b925050506107e3565b80611f33816132ed565b915050611ee6565b50506012549392505050565b610b228282604051602401611f5d929190613a78565b60408051601f198184030181529190526020810180517bffffffffffffffffffffffffffffffffffffffffffffffffffffffff167fb60e72cc00000000000000000000000000000000000000000000000000000000179052612790565b600a546040517f70a0823100000000000000000000000000000000000000000000000000000000815260009182916401000000009091046001600160a01b0316906370a082319061200f908690600401612fb1565b602060405180830381865afa15801561202c573d6000803e3d6000fd5b505050506040513d601f19601f820116820180604052508101906120509190613877565b9050600061205f82602161367b565b61206a906064613247565b905061207781600661367b565b61208286606461367b565b1015612093576004925050506107e3565b61209e81601a61367b565b6120a986606461367b565b10156120ba576003925050506107e3565b6120c581604c61367b565b6120d086606461367b565b10156120e1576002925050506107e3565b6120ec8160e261367b565b6120f786606461367b565b1015612108576001925050506107e3565b6000925050506107e3565b610b228282604051602401612129929190613a98565b60408051601f198184030181529190526020810180517bffffffffffffffffffffffffffffffffffffffffffffffffffffffff167fc3b5563500000000000000000000000000000000000000000000000000000000179052612790565b6001600160a01b0384166121ac5760405162461bcd60e51b81526004016107b790613b10565b81518351146121cd5760405162461bcd60e51b81526004016107b790613767565b336121dd816000878787876122e0565b60005b8451811015612278578381815181106121fb576121fb613231565b602002602001015160008087848151811061221857612218613231565b602002602001015181526020019081526020016000206000886001600160a01b03166001600160a01b0316815260200190815260200160002060008282546122609190613247565b90915550819050612270816132ed565b9150506121e0565b50846001600160a01b031660006001600160a01b0316826001600160a01b03167f4a39dc06d4c0dbc64b70af90fd698a233a518aa5d07e595d983b8c0526c8f7fb87876040516122c9929190613847565b60405180910390a4610b6b816000878787876122ee565b6119818686868686866127b1565b6001600160a01b0384163b15611981576040517fbc197c810000000000000000000000000000000000000000000000000000000081526001600160a01b0385169063bc197c819061234b9089908990889088908890600401613b20565b6020604051808303816000875af1925050508015612386575060408051601f3d908101601f1916820190925261238391810190613b8b565b60015b6123e557612392613bac565b806308c379a0036123cb57506123a6613bc7565b806123b157506123cd565b8060405162461bcd60e51b81526004016107b79190612a9d565b505b60405162461bcd60e51b81526004016107b790613c9d565b7fffffffff0000000000000000000000000000000000000000000000000000000081167fbc197c8100000000000000000000000000000000000000000000000000000000146124465760405162461bcd60e51b81526004016107b790613d05565b50505050505050565b60007f00000000000000000000000000000000000000000000000000000000000000006001600160a01b0316634000aea07f00000000000000000000000000000000000000000000000000000000000000007f00000000000000000000000000000000000000000000000000000000000000006001600160a01b0316634306d354886040518263ffffffff1660e01b81526004016124ed9190612c2e565b602060405180830381865afa15801561250a573d6000803e3d6000fd5b505050506040513d601f19601f8201168201806040525081019061252e9190613877565b87878760405160200161254393929190613d1f565b6040516020818303038152906040526040518463ffffffff1660e01b815260040161257093929190613d47565b6020604051808303816000875af115801561258f573d6000803e3d6000fd5b505050506040513d601f19601f820116820180604052508101906125b39190613d88565b507f00000000000000000000000000000000000000000000000000000000000000006001600160a01b031663fc2a88c36040518163ffffffff1660e01b8152600401602060405180830381865afa158015612612573d6000803e3d6000fd5b505050506040513d601f19601f820116820180604052508101906126369190613877565b90505b9392505050565b6040805160018082528183019092526060916000919060208083019080368337019050509050828160008151811061267a5761267a613231565b602090810291909101015292915050565b6001600160a01b0384163b15611981576040517ff23a6e610000000000000000000000000000000000000000000000000000000081526001600160a01b0385169063f23a6e61906126e89089908990889088908890600401613da9565b6020604051808303816000875af1925050508015612723575060408051601f3d908101601f1916820190925261272091810190613b8b565b60015b61272f57612392613bac565b7fffffffff0000000000000000000000000000000000000000000000000000000081167ff23a6e6100000000000000000000000000000000000000000000000000000000146124465760405162461bcd60e51b81526004016107b790613d05565b80516a636f6e736f6c652e6c6f67602083016000808483855afa5050505050565b6001600160a01b0385166128385760005b8351811015612836578281815181106127dd576127dd613231565b6020026020010151600460008684815181106127fb576127fb613231565b6020026020010151815260200190815260200160002060008282546128209190613247565b9091555061282f9050816132ed565b90506127c2565b505b6001600160a01b0384166119815760005b835181101561244657600084828151811061286657612866613231565b60200260200101519050600084838151811061288457612884613231565b60200260200101519050600060046000848152602001908152602001600020549050818110156128c65760405162461bcd60e51b81526004016107b790613e48565b600092835260046020526040909220910390556128e2816132ed565b9050612849565b828054828255906000526020600020908101928215612924579160200282015b82811115612924578251825591602001919060010190612909565b50612930929150612934565b5090565b5b808211156129305760008155600101612935565b60006001600160a01b0382166107e3565b61296381612949565b81146111d357600080fd5b80356107e38161295a565b80612963565b80356107e381612979565b600080604083850312156129a0576129a0600080fd5b60006129ac858561296e565b92505060206129bd8582860161297f565b9150509250929050565b805b82525050565b602081016107e382846129c7565b7fffffffff000000000000000000000000000000000000000000000000000000008116612963565b80356107e3816129dd565b600060208284031215612a2557612a25600080fd5b6000610aaf8484612a05565b8015156129c9565b602081016107e38284612a31565b60005b83811015612a62578181015183820152602001612a4a565b50506000910152565b6000612a75825190565b808452602084019350612a8c818560208601612a47565b601f01601f19169290920192915050565b602080825281016126398184612a6b565b600060208284031215612ac357612ac3600080fd5b6000610aaf848461297f565b634e487b7160e01b600052604160045260246000fd5b601f19601f830116810181811067ffffffffffffffff82111715612b0b57612b0b612acf565b6040525050565b6000612b1d60405190565b9050612b298282612ae5565b919050565b600067ffffffffffffffff821115612b4857612b48612acf565b5060209081020190565b6000612b65612b6084612b2e565b612b12565b83815290506020808201908402830185811115612b8457612b84600080fd5b835b81811015612ba657612b98878261297f565b835260209283019201612b86565b5050509392505050565b600082601f830112612bc457612bc4600080fd5b8135610aaf848260208601612b52565b60008060408385031215612bea57612bea600080fd5b6000612bf6858561297f565b925050602083013567ffffffffffffffff811115612c1657612c16600080fd5b6129bd85828601612bb0565b63ffffffff81166129c9565b602081016107e38284612c22565b600067ffffffffffffffff821115612c5657612c56612acf565b601f19601f83011660200192915050565b82818337506000910152565b6000612c81612b6084612c3c565b905082815260208101848484011115612c9c57612c9c600080fd5b610da2848285612c67565b600082601f830112612cbb57612cbb600080fd5b8135610aaf848260208601612c73565b600080600080600060a08688031215612ce657612ce6600080fd5b6000612cf2888861296e565b9550506020612d038882890161296e565b945050604086013567ffffffffffffffff811115612d2357612d23600080fd5b612d2f88828901612bb0565b935050606086013567ffffffffffffffff811115612d4f57612d4f600080fd5b612d5b88828901612bb0565b925050608086013567ffffffffffffffff811115612d7b57612d7b600080fd5b612d8788828901612ca7565b9150509295509295909350565b600060208284031215612da957612da9600080fd5b6000610aaf848461296e565b6000612dc3612b6084612b2e565b83815290506020808201908402830185811115612de257612de2600080fd5b835b81811015612ba657612df6878261296e565b835260209283019201612de4565b600082601f830112612e1857612e18600080fd5b8135610aaf848260208601612db5565b60008060408385031215612e3e57612e3e600080fd5b823567ffffffffffffffff811115612e5857612e58600080fd5b612bf685828601612e04565b612e6e82826129c7565b5060200190565b60200190565b6000612e85825190565b808452602093840193830160005b82811015612eb8578151612ea78782612e64565b965050602082019150600101612e93565b5093949350505050565b602080825281016126398184612e7b565b6000612edd825190565b808452602093840193830160005b82811015612eb8578151612eff8782612e64565b965050602082019150600101612eeb565b6129c981612949565b80516000906080840190612f2d85826129c7565b5060208301518482036020860152612f458282612ed3565b9150506040830151612f5a6040860182612f10565b506060830151610da26060860182612a31565b602080825281016126398184612f19565b60008060408385031215612f9457612f94600080fd5b6000612fa0858561297f565b92505060206129bd8582860161296e565b602081016107e38284612f10565b801515612963565b80356107e381612fbf565b60008060408385031215612fe857612fe8600080fd5b6000612ff4858561296e565b92505060206129bd85828601612fc7565b63ffffffff8116612963565b80356107e381613005565b60006020828403121561303157613031600080fd5b6000610aaf8484613011565b6060810161304b82866129c7565b6130586020830185612f10565b610aaf6040830184612a31565b6000806040838503121561307b5761307b600080fd5b6000612fa0858561296e565b600080600080600060a086880312156130a2576130a2600080fd5b60006130ae888861296e565b95505060206130bf8882890161296e565b94505060406130d08882890161297f565b9350506060612d5b8882890161297f565b604081016130ef82856129c7565b6126396020830184612f10565b6000806040838503121561311257613112600080fd5b60006129ac858561297f565b602a8152602081017f455243313135353a2061646472657373207a65726f206973206e6f742061207681527f616c6964206f776e657200000000000000000000000000000000000000000000602082015290505b60400190565b602080825281016107e38161311e565b634e487b7160e01b600052602260045260246000fd5b6002810460018216806131b257607f821691505b6020821081036131c4576131c4613188565b50919050565b634e487b7160e01b600052601260045260246000fd5b6000826131ef576131ef6131ca565b500690565b634e487b7160e01b600052601160045260246000fd5b818103818111156107e3576107e36131f4565b60008261322c5761322c6131ca565b500490565b634e487b7160e01b600052603260045260246000fd5b808201808211156107e3576107e36131f4565b6000613268612b6084612c3c565b90508281526020810184848401111561328357613283600080fd5b610da2848285612a47565b600082601f8301126132a2576132a2600080fd5b8151610aaf84826020860161325a565b6000602082840312156132c7576132c7600080fd5b815167ffffffffffffffff8111156132e1576132e1600080fd5b610aaf8482850161328e565b60006000198203613300576133006131f4565b5060010190565b601f8152602081017f6f6e6c792056524620563220777261707065722063616e2066756c66696c6c0081529050612e75565b602080825281016107e381613307565b602e8152602081017f455243313135353a2063616c6c6572206973206e6f7420746f6b656e206f776e81527f6572206f7220617070726f76656400000000000000000000000000000000000060208201529050613172565b602080825281016107e381613349565b60128152602081017f4d494e54494e47202d204e4f54204f50454e000000000000000000000000000081529050612e75565b602080825281016107e3816133b1565b60138152602081017f4e6f7420656e6f756768204554482073656e740000000000000000000000000081529050612e75565b602080825281016107e3816133f3565b60188152602081017f4d4158206d696e74656420647572696e6720536561736f6e000000000000000081529050612e75565b602080825281016107e381613435565b60198152602081017f4661696c656420746f207769647468647261772045746865720000000000000081529050612e75565b602080825281016107e381613477565b60298152602081017f455243313135353a206163636f756e747320616e6420696473206c656e67746881527f206d69736d61746368000000000000000000000000000000000000000000000060208201529050613172565b602080825281016107e3816134b9565b60098152602081017f4d696e742055736564000000000000000000000000000000000000000000000081529050612e75565b602080825281016107e381613521565b80516107e38161295a565b60006020828403121561358357613583600080fd5b6000610aaf8484613563565b60128152602081017f4e6f74204f776e6572206f6620546f6b656e000000000000000000000000000081529050612e75565b602080825281016107e38161358f565b60268152602081017f4f776e61626c653a206e6577206f776e657220697320746865207a65726f206181527f646472657373000000000000000000000000000000000000000000000000000060208201529050613172565b602080825281016107e3816135d1565b60118152602081017f52657175657374206e6f7420666f756e6400000000000000000000000000000081529050612e75565b602080825281016107e381613639565b81810281158282048414176107e3576107e36131f4565b6000816107e3565b90565b60006107e38254613692565b60006136b3825490565b80845260008381526020808220950194905b82811015612eb8576136d68261369d565b6136e08782612e64565b965050600191820191016136c5565b604081016136fd82856129c7565b818103602083015261263681846136a9565b60288152602081017f455243313135353a2069647320616e6420616d6f756e7473206c656e6774682081527f6d69736d6174636800000000000000000000000000000000000000000000000060208201529050613172565b602080825281016107e38161370f565b60258152602081017f455243313135353a207472616e7366657220746f20746865207a65726f20616481527f647265737300000000000000000000000000000000000000000000000000000060208201529050613172565b602080825281016107e381613777565b602a8152602081017f455243313135353a20696e73756666696369656e742062616c616e636520666f81527f72207472616e736665720000000000000000000000000000000000000000000060208201529050613172565b602080825281016107e3816137df565b604080825281016138588185612e7b565b905081810360208301526126368184612e7b565b80516107e381612979565b60006020828403121561388c5761388c600080fd5b6000610aaf848461386c565b60208082527f4f776e61626c653a2063616c6c6572206973206e6f7420746865206f776e65729101908152612e75565b602080825281016107e381613898565b60298152602081017f455243313135353a2073657474696e6720617070726f76616c2073746174757381527f20666f722073656c66000000000000000000000000000000000000000000000060208201529050613172565b602080825281016107e3816138d8565b6040810161394e82856129c7565b61263960208301846129c7565b80825b600185111561399a57808604811115613979576139796131f4565b600185161561398757908102905b80026139938560011c90565b945061395e565b94509492505050565b6000826139b257506001612639565b816139bf57506000612639565b81600181146139d557600281146139df57613a0c565b6001915050612639565b60ff8411156139f0576139f06131f4565b8360020a915084821115613a0657613a066131f4565b50612639565b5060208310610133831016604e8410600b8410161715613a3f575081810a83811115613a3a57613a3a6131f4565b612639565b613a4c848484600161395b565b92509050818404811115613a6257613a626131f4565b0292915050565b600061263960001984846139a3565b60408082528101613a898185612a6b565b905061263960208301846129c7565b60408082528101613aa98185612a6b565b90506126396020830184612a31565b60218152602081017f455243313135353a206d696e7420746f20746865207a65726f2061646472657381527f730000000000000000000000000000000000000000000000000000000000000060208201529050613172565b602080825281016107e381613ab8565b60a08101613b2e8288612f10565b613b3b6020830187612f10565b8181036040830152613b4d8186612e7b565b90508181036060830152613b618185612e7b565b90508181036080830152613b758184612a6b565b979650505050505050565b80516107e3816129dd565b600060208284031215613ba057613ba0600080fd5b6000610aaf8484613b80565b600060033d111561369a5760046000803e5060005160e01c90565b600060443d1015613bd55790565b60405160043d036004823e80513d602482011167ffffffffffffffff82111715613bfe57505090565b808201805167ffffffffffffffff811115613c1a575050505090565b80602083010160043d038501811115613c3557505050505090565b50610da281602001840185612ae5565b60348152602081017f455243313135353a207472616e7366657220746f206e6f6e2d4552433131353581527f526563656976657220696d706c656d656e74657200000000000000000000000060208201529050613172565b602080825281016107e381613c45565b60288152602081017f455243313135353a204552433131353552656365697665722072656a6563746581527f6420746f6b656e7300000000000000000000000000000000000000000000000060208201529050613172565b602080825281016107e381613cad565b61ffff81166129c9565b60608101613d2d8286612c22565b613d3a6020830185613d15565b610aaf6040830184612c22565b60608101613d558286612f10565b613d6260208301856129c7565b8181036040830152613d748184612a6b565b95945050505050565b80516107e381612fbf565b600060208284031215613d9d57613d9d600080fd5b6000610aaf8484613d7d565b60a08101613db78288612f10565b613dc46020830187612f10565b613dd160408301866129c7565b613dde60608301856129c7565b8181036080830152613b758184612a6b565b60288152602081017f455243313135353a206275726e20616d6f756e74206578636565647320746f7481527f616c537570706c7900000000000000000000000000000000000000000000000060208201529050613172565b602080825281016107e381613df056fea2646970667358221220e57439dd1a2d7ca42b38308dbef78a7d3fd91d1cbb36964027431e6f8bed653164736f6c63430008110033",
  "linkReferences": {},
  "deployedLinkReferences": {}
}